{
    "contractName": "EscrowMarketplace",
    "abi": [
        {
            "inputs": [],
            "stateMutability": "nonpayable",
            "type": "constructor"
        },
        {
            "inputs": [],
            "name": "InvalidAddress",
            "type": "error"
        },
        {
            "inputs": [],
            "name": "InvalidAmount",
            "type": "error"
        },
        {
            "inputs": [],
            "name": "InvalidDeadline",
            "type": "error"
        },
        {
            "inputs": [],
            "name": "InvalidFreelancer",
            "type": "error"
        },
        {
            "inputs": [],
            "name": "JobDoesNotExist",
            "type": "error"
        },
        {
            "inputs": [
                {
                    "internalType": "address",
                    "name": "token",
                    "type": "address"
                }
            ],
            "name": "SafeERC20FailedOperation",
            "type": "error"
        },
        {
            "anonymous": false,
            "inputs": [
                {
                    "indexed": true,
                    "internalType": "uint256",
                    "name": "jobId",
                    "type": "uint256"
                },
                {
                    "indexed": true,
                    "internalType": "address",
                    "name": "client",
                    "type": "address"
                },
                {
                    "indexed": true,
                    "internalType": "address",
                    "name": "freelancer",
                    "type": "address"
                },
                {
                    "indexed": false,
                    "internalType": "address",
                    "name": "token",
                    "type": "address"
                },
                {
                    "indexed": false,
                    "internalType": "uint256",
                    "name": "amount",
                    "type": "uint256"
                },
                {
                    "indexed": false,
                    "internalType": "uint256",
                    "name": "deadline",
                    "type": "uint256"
                },
                {
                    "indexed": false,
                    "internalType": "string",
                    "name": "metadataURI",
                    "type": "string"
                }
            ],
            "name": "JobCreated",
            "type": "event"
        },
        {
            "inputs": [
                {
                    "internalType": "address",
                    "name": "freelancer",
                    "type": "address"
                },
                {
                    "internalType": "address",
                    "name": "token",
                    "type": "address"
                },
                {
                    "internalType": "uint256",
                    "name": "amount",
                    "type": "uint256"
                },
                {
                    "internalType": "uint256",
                    "name": "deadline",
                    "type": "uint256"
                },
                {
                    "internalType": "string",
                    "name": "metadataURI",
                    "type": "string"
                }
            ],
            "name": "createJob",
            "outputs": [
                {
                    "internalType": "uint256",
                    "name": "jobId",
                    "type": "uint256"
                }
            ],
            "stateMutability": "nonpayable",
            "type": "function"
        },
        {
            "inputs": [
                {
                    "internalType": "uint256",
                    "name": "jobId",
                    "type": "uint256"
                }
            ],
            "name": "getJob",
            "outputs": [
                {
                    "components": [
                        {
                            "internalType": "address",
                            "name": "client",
                            "type": "address"
                        },
                        {
                            "internalType": "address",
                            "name": "freelancer",
                            "type": "address"
                        },
                        {
                            "internalType": "address",
                            "name": "token",
                            "type": "address"
                        },
                        {
                            "internalType": "uint256",
                            "name": "amount",
                            "type": "uint256"
                        },
                        {
                            "internalType": "uint256",
                            "name": "deadline",
                            "type": "uint256"
                        },
                        {
                            "internalType": "enum EscrowMarketplace.JobStatus",
                            "name": "status",
                            "type": "uint8"
                        },
                        {
                            "internalType": "string",
                            "name": "metadataURI",
                            "type": "string"
                        }
                    ],
                    "internalType": "struct EscrowMarketplace.Job",
                    "name": "",
                    "type": "tuple"
                }
            ],
            "stateMutability": "view",
            "type": "function"
        },
        {
            "inputs": [],
            "name": "nextJobId",
            "outputs": [
                {
                    "internalType": "uint256",
                    "name": "",
                    "type": "uint256"
                }
            ],
            "stateMutability": "view",
            "type": "function"
        }
    ],
    "bytecode": "6080806040523460195760015f5561071c908161001e8239f35b5f80fdfe6080806040526004361015610012575f80fd5b5f3560e01c908163879397c41461028157508063b0c2aa5e146102655763bf22c4571461003d575f80fd5b3461026157602036600319011261026157600435606060c060405161006181610670565b5f81525f60208201525f60408201525f838201525f60808201525f60a0820152015280158015610256575b610247575f52600160205260405f20604051906100a882610670565b80546001600160a01b03908116835260018201548116602084019081526002830154909116604084019081526003830154606085019081526004840154608086019081526005850154939460a087019491939160ff169060088210156101cd576006918652019460405195865f825492610121846106ae565b808452936001811690811561022557506001146101e1575b506101469250038761068c565b60c0870195865260408051602080825298516001600160a01b03908116998201999099529151881690820152905190951660608601525160808501525160a0840152519060088210156101cd57602083916101209360c08401525160e080840152805191829182610100860152018484015e5f828201840152601f01601f19168101030190f35b634e487b7160e01b5f52602160045260245ffd5b90505f9291925260205f20905f915b818310610209575050906020610146928201015f610139565b6020919350806001915483858d010152019101909188926101f0565b90506020925061014694915060ff191682840152151560051b8201015f610139565b630fc5fb8d60e41b5f5260045ffd5b505f5481101561008c565b5f80fd5b34610261575f3660031901126102615760205f54604051908152f35b346102615760a0366003190112610261576004356001600160a01b0381169190829003610261576024356001600160a01b0381169290839003610261576064359160443560843567ffffffffffffffff811161026157366023820112156102615780600401359067ffffffffffffffff82116102615760248101906024833692010111610261578415610661578615610661573385146106525782156106435742861115610634575f549561033585610670565b33855260208501868152604086019589875260608101908682526080810184815260a082019260018452601f19601f890116996040519561037960208d018861068c565b898752898960208901375f60208b8901810182905260c087019889528f82526001908190526040909120955186546001600160a01b039182166001600160a01b0319918216178855925191870180549282169284169290921790915591516002860180549190931691161790555160038301555160048201559051906005810160088310156101cd5760069260ff8019835416911617905501905180519067ffffffffffffffff821161062057819061043284546106ae565b601f81116105c7575b50602090601f8311600114610564575f92610559575b50508160011b915f199060031b1c19161790555b5f545f198114610545576001015f55604051936323b872dd60e01b5f5233600452306024528060445260205f606481808d5af160015f5114811615610526575b856040525f6060521561051357837ff81d03a572fce647ef0f6735dc7f5ace086c776f967730458dd72de58facaed79486945f9460a09460209d8d9a528d880152604087015260806060870152816080870152838601378301015260a08133958101030190a4604051908152f35b88635274afe760e01b5f5260045260245ffd5b600181151661053c57893b15153d1516166104a5565b853d5f823e3d90fd5b634e487b7160e01b5f52601160045260245ffd5b015190508b80610451565b5f8581528281209350601f198516905b8181106105af5750908460019594939210610597575b505050811b019055610465565b01515f1960f88460031b161c191690558b808061058a565b92936020600181928786015181550195019301610574565b8281111561043b57909150835f5260205f20601f840160051c9060208510610618575b849392601f0160051c82900391015f5b82811061060857505061043b565b5f818301558594506001016105fa565b5f91506105ea565b634e487b7160e01b5f52604160045260245ffd5b631da7447960e21b5f5260045ffd5b63162908e360e11b5f5260045ffd5b633ad7719360e11b5f5260045ffd5b63e6c4247b60e01b5f5260045ffd5b60e0810190811067ffffffffffffffff82111761062057604052565b90601f8019910116810190811067ffffffffffffffff82111761062057604052565b90600182811c921680156106dc575b60208310146106c857565b634e487b7160e01b5f52602260045260245ffd5b91607f16916106bd56fea2646970667358221220d079d340f4830b4d72b3e9f6dd7c0bf669db18f3efc2cf6b4ad1269bb925c26164736f6c63430008230033",
    "sourcePath": "/Users/guille/Blockchain-Projects/EscrowMarketplace/src/EscrowMarketplace.sol",
    "compiler": {
        "name": "solc",
        "version": "0.8.35+commit.47b9dedd"
    },
    "functionHashes": {
        "createJob(address,address,uint256,uint256,string)": "879397c4",
        "getJob(uint256)": "bf22c457",
        "nextJobId()": "b0c2aa5e"
    },
    "gasEstimates": {
        "creation": {
            "codeDepositCost": "364000",
            "executionCost": "22511",
            "totalCost": "386511"
        },
        "external": {
            "createJob(address,address,uint256,uint256,string)": "infinite",
            "getJob(uint256)": "infinite",
            "nextJobId()": "2277"
        }
    }
}